{
  "_format": "hh-sol-artifact-1",
  "contractName": "TokenLoan",
  "sourceName": "contracts/Lock.sol",
  "abi": [
    {
      "inputs": [
        {
          "internalType": "address",
          "name": "_ETH",
          "type": "address"
        },
        {
          "internalType": "address",
          "name": "_owner1",
          "type": "address"
        },
        {
          "internalType": "uint256",
          "name": "_amount1",
          "type": "uint256"
        },
        {
          "internalType": "address",
          "name": "_BR",
          "type": "address"
        },
        {
          "internalType": "address",
          "name": "_Bank",
          "type": "address"
        },
        {
          "internalType": "uint256",
          "name": "loanDuration",
          "type": "uint256"
        }
      ],
      "stateMutability": "nonpayable",
      "type": "constructor"
    },
    {
      "inputs": [],
      "name": "BR",
      "outputs": [
        {
          "internalType": "contract IERC20",
          "name": "",
          "type": "address"
        }
      ],
      "stateMutability": "view",
      "type": "function"
    },
    {
      "inputs": [],
      "name": "Bank",
      "outputs": [
        {
          "internalType": "address",
          "name": "",
          "type": "address"
        }
      ],
      "stateMutability": "view",
      "type": "function"
    },
    {
      "inputs": [],
      "name": "ETH",
      "outputs": [
        {
          "internalType": "contract IERC20",
          "name": "",
          "type": "address"
        }
      ],
      "stateMutability": "view",
      "type": "function"
    },
    {
      "inputs": [],
      "name": "amount1",
      "outputs": [
        {
          "internalType": "uint256",
          "name": "",
          "type": "uint256"
        }
      ],
      "stateMutability": "view",
      "type": "function"
    },
    {
      "inputs": [],
      "name": "amount2",
      "outputs": [
        {
          "internalType": "uint256",
          "name": "",
          "type": "uint256"
        }
      ],
      "stateMutability": "view",
      "type": "function"
    },
    {
      "inputs": [],
      "name": "dueDate",
      "outputs": [
        {
          "internalType": "uint256",
          "name": "",
          "type": "uint256"
        }
      ],
      "stateMutability": "view",
      "type": "function"
    },
    {
      "inputs": [],
      "name": "owner1",
      "outputs": [
        {
          "internalType": "address",
          "name": "",
          "type": "address"
        }
      ],
      "stateMutability": "view",
      "type": "function"
    },
    {
      "inputs": [],
      "name": "payLoan",
      "outputs": [],
      "stateMutability": "nonpayable",
      "type": "function"
    },
    {
      "inputs": [],
      "name": "pay_Amount",
      "outputs": [
        {
          "internalType": "uint256",
          "name": "",
          "type": "uint256"
        }
      ],
      "stateMutability": "view",
      "type": "function"
    },
    {
      "inputs": [],
      "name": "swap",
      "outputs": [],
      "stateMutability": "nonpayable",
      "type": "function"
    }
  ],
  "bytecode": "0x60806040523480156200001157600080fd5b506040516200122c3803806200122c83398181016040528101906200003791906200024e565b856000806101000a81548173ffffffffffffffffffffffffffffffffffffffff021916908373ffffffffffffffffffffffffffffffffffffffff16021790555084600160006101000a81548173ffffffffffffffffffffffffffffffffffffffff021916908373ffffffffffffffffffffffffffffffffffffffff1602179055508360028190555082600360006101000a81548173ffffffffffffffffffffffffffffffffffffffff021916908373ffffffffffffffffffffffffffffffffffffffff16021790555081600460006101000a81548173ffffffffffffffffffffffffffffffffffffffff021916908373ffffffffffffffffffffffffffffffffffffffff16021790555083606462000150919062000319565b600581905550804262000164919062000364565b600681905550600254600a426002546200017f919062000319565b6200018b919062000319565b62000197919062000364565b6007819055505050505050506200039f565b600080fd5b600073ffffffffffffffffffffffffffffffffffffffff82169050919050565b6000620001db82620001ae565b9050919050565b620001ed81620001ce565b8114620001f957600080fd5b50565b6000815190506200020d81620001e2565b92915050565b6000819050919050565b620002288162000213565b81146200023457600080fd5b50565b60008151905062000248816200021d565b92915050565b60008060008060008060c087890312156200026e576200026d620001a9565b5b60006200027e89828a01620001fc565b96505060206200029189828a01620001fc565b9550506040620002a489828a0162000237565b9450506060620002b789828a01620001fc565b9350506080620002ca89828a01620001fc565b92505060a0620002dd89828a0162000237565b9150509295509295509295565b7f4e487b7100000000000000000000000000000000000000000000000000000000600052601160045260246000fd5b6000620003268262000213565b9150620003338362000213565b9250828202620003438162000213565b915082820484148315176200035d576200035c620002ea565b5b5092915050565b6000620003718262000213565b91506200037e8362000213565b9250828201905080821115620003995762000398620002ea565b5b92915050565b610e7d80620003af6000396000f3fe608060405234801561001057600080fd5b506004361061009e5760003560e01c806373688914116100665780637368891414610125578063786716fe146101435780638119c065146101615780638322fff21461016b578063f400fde4146101895761009e565b8063057bfcc7146100a3578063472eb03d146100c15780634a81baa1146100cb5780634e41108d146100e95780637314110b14610107575b600080fd5b6100ab6101a7565b6040516100b8919061099a565b60405180910390f35b6100c96101ad565b005b6100d3610438565b6040516100e0919061099a565b60405180910390f35b6100f161043e565b6040516100fe91906109f6565b60405180910390f35b61010f610464565b60405161011c9190610a70565b60405180910390f35b61012d61048a565b60405161013a91906109f6565b60405180910390f35b61014b6104b0565b604051610158919061099a565b60405180910390f35b6101696104b6565b005b61017361088c565b6040516101809190610a70565b60405180910390f35b6101916108b0565b60405161019e919061099a565b60405180910390f35b60055481565b6006544211156101bc57600080fd5b600160009054906101000a900473ffffffffffffffffffffffffffffffffffffffff1673ffffffffffffffffffffffffffffffffffffffff163373ffffffffffffffffffffffffffffffffffffffff161461024c576040517f08c379a000000000000000000000000000000000000000000000000000000000815260040161024390610ae8565b60405180910390fd5b600754600360009054906101000a900473ffffffffffffffffffffffffffffffffffffffff1673ffffffffffffffffffffffffffffffffffffffff1663dd62ed3e600160009054906101000a900473ffffffffffffffffffffffffffffffffffffffff16306040518363ffffffff1660e01b81526004016102ce929190610b08565b602060405180830381865afa1580156102eb573d6000803e3d6000fd5b505050506040513d601f19601f8201168201806040525081019061030f9190610b62565b1015610350576040517f08c379a000000000000000000000000000000000000000000000000000000000815260040161034790610bdb565b60405180910390fd5b6103c4600360009054906101000a900473ffffffffffffffffffffffffffffffffffffffff16600160009054906101000a900473ffffffffffffffffffffffffffffffffffffffff16600460009054906101000a900473ffffffffffffffffffffffffffffffffffffffff166007546108b6565b61043660008054906101000a900473ffffffffffffffffffffffffffffffffffffffff16600460009054906101000a900473ffffffffffffffffffffffffffffffffffffffff16600160009054906101000a900473ffffffffffffffffffffffffffffffffffffffff166002546108b6565b565b60075481565b600460009054906101000a900473ffffffffffffffffffffffffffffffffffffffff1681565b600360009054906101000a900473ffffffffffffffffffffffffffffffffffffffff1681565b600160009054906101000a900473ffffffffffffffffffffffffffffffffffffffff1681565b60065481565b600160009054906101000a900473ffffffffffffffffffffffffffffffffffffffff1673ffffffffffffffffffffffffffffffffffffffff163373ffffffffffffffffffffffffffffffffffffffff16148061055f5750600460009054906101000a900473ffffffffffffffffffffffffffffffffffffffff1673ffffffffffffffffffffffffffffffffffffffff163373ffffffffffffffffffffffffffffffffffffffff16145b61059e576040517f08c379a000000000000000000000000000000000000000000000000000000000815260040161059590610c47565b60405180910390fd5b60025460008054906101000a900473ffffffffffffffffffffffffffffffffffffffff1673ffffffffffffffffffffffffffffffffffffffff1663dd62ed3e600160009054906101000a900473ffffffffffffffffffffffffffffffffffffffff16306040518363ffffffff1660e01b815260040161061e929190610b08565b602060405180830381865afa15801561063b573d6000803e3d6000fd5b505050506040513d601f19601f8201168201806040525081019061065f9190610b62565b10156106a0576040517f08c379a000000000000000000000000000000000000000000000000000000000815260040161069790610cb3565b60405180910390fd5b600554600360009054906101000a900473ffffffffffffffffffffffffffffffffffffffff1673ffffffffffffffffffffffffffffffffffffffff1663dd62ed3e600460009054906101000a900473ffffffffffffffffffffffffffffffffffffffff16306040518363ffffffff1660e01b8152600401610722929190610b08565b602060405180830381865afa15801561073f573d6000803e3d6000fd5b505050506040513d601f19601f820116820180604052508101906107639190610b62565b10156107a4576040517f08c379a000000000000000000000000000000000000000000000000000000000815260040161079b90610d1f565b60405180910390fd5b61081660008054906101000a900473ffffffffffffffffffffffffffffffffffffffff16600160009054906101000a900473ffffffffffffffffffffffffffffffffffffffff16600460009054906101000a900473ffffffffffffffffffffffffffffffffffffffff166002546108b6565b61088a600360009054906101000a900473ffffffffffffffffffffffffffffffffffffffff16600460009054906101000a900473ffffffffffffffffffffffffffffffffffffffff16600160009054906101000a900473ffffffffffffffffffffffffffffffffffffffff166005546108b6565b565b60008054906101000a900473ffffffffffffffffffffffffffffffffffffffff1681565b60025481565b60008473ffffffffffffffffffffffffffffffffffffffff166323b872dd8585856040518463ffffffff1660e01b81526004016108f593929190610d3f565b6020604051808303816000875af1158015610914573d6000803e3d6000fd5b505050506040513d601f19601f820116820180604052508101906109389190610dae565b90508061097a576040517f08c379a000000000000000000000000000000000000000000000000000000000815260040161097190610e27565b60405180910390fd5b5050505050565b6000819050919050565b61099481610981565b82525050565b60006020820190506109af600083018461098b565b92915050565b600073ffffffffffffffffffffffffffffffffffffffff82169050919050565b60006109e0826109b5565b9050919050565b6109f0816109d5565b82525050565b6000602082019050610a0b60008301846109e7565b92915050565b6000819050919050565b6000610a36610a31610a2c846109b5565b610a11565b6109b5565b9050919050565b6000610a4882610a1b565b9050919050565b6000610a5a82610a3d565b9050919050565b610a6a81610a4f565b82525050565b6000602082019050610a856000830184610a61565b92915050565b600082825260208201905092915050565b7f4e6f7420417574686f7269736564000000000000000000000000000000000000600082015250565b6000610ad2600e83610a8b565b9150610add82610a9c565b602082019050919050565b60006020820190508181036000830152610b0181610ac5565b9050919050565b6000604082019050610b1d60008301856109e7565b610b2a60208301846109e7565b9392505050565b600080fd5b610b3f81610981565b8114610b4a57600080fd5b50565b600081519050610b5c81610b36565b92915050565b600060208284031215610b7857610b77610b31565b5b6000610b8684828501610b4d565b91505092915050565b7f4e6f7420456e6f75676820425220546f6b656e00000000000000000000000000600082015250565b6000610bc5601383610a8b565b9150610bd082610b8f565b602082019050919050565b60006020820190508181036000830152610bf481610bb8565b9050919050565b7f4e6f7420617574686f72697a6564000000000000000000000000000000000000600082015250565b6000610c31600e83610a8b565b9150610c3c82610bfb565b602082019050919050565b60006020820190508181036000830152610c6081610c24565b9050919050565b7f4e6f7420456e6f7567682045544820546f6b656e000000000000000000000000600082015250565b6000610c9d601483610a8b565b9150610ca882610c67565b602082019050919050565b60006020820190508181036000830152610ccc81610c90565b9050919050565b7f42616e6b20697320676f696e672062616e6b7275707400000000000000000000600082015250565b6000610d09601683610a8b565b9150610d1482610cd3565b602082019050919050565b60006020820190508181036000830152610d3881610cfc565b9050919050565b6000606082019050610d5460008301866109e7565b610d6160208301856109e7565b610d6e604083018461098b565b949350505050565b60008115159050919050565b610d8b81610d76565b8114610d9657600080fd5b50565b600081519050610da881610d82565b92915050565b600060208284031215610dc457610dc3610b31565b5b6000610dd284828501610d99565b91505092915050565b7f546f6b656e207472616e73666572206661696c65640000000000000000000000600082015250565b6000610e11601583610a8b565b9150610e1c82610ddb565b602082019050919050565b60006020820190508181036000830152610e4081610e04565b905091905056fea2646970667358221220dc6896b73dbaf21c4681b0a856457cf583a9243c144dd33f1bb79b9ebbc9777564736f6c63430008110033",
  "linkReferences": {},
  "deployedLinkReferences": {}
}